:020000040800F2
:1000000000500020B9120008FD120008FD1200087F
:10001000FD120008FD120008FD120008000000009B
:10002000000000000000000000000000D93F0008B0
:10003000FD1200080000000065400008A94000080B
:10004000FD120008FD120008FD120008FD12000854
:10005000FD120008FD120008FD120008FD12000844
:10006000FD120008FD120008FD120008FD12000834
:10007000FD120008FD120008FD120008FD12000824
:10008000FD120008FD120008FD120008FD12000814
:10009000FD120008FD120008FD120008FD12000804
:1000A000FD120008FD120008FD120008FD120008F4
:1000B000FD120008FD120008FD120008FD120008E4
:1000C000FD120008FD120008FD120008FD120008D4
:1000D000FD120008FD120008FD120008FD120008C4
:1000E000FD120008FD120008FD12000800000000CB
:1000F0000000000000000000000000000000000000
:1001000000000000000000005FF808F110B5054C89
:10011000237833B9044B13B10448AFF300800123B3
:10012000237010BD78040020000000009C590008D6
:10013000084B10B51BB108480849AFF300800848C8
:10014000036803B910BD074B002BFBD0BDE810407E
:10015000184700BF000000009C5900087C040020E4
:10016000740400200000000038B5054643071CBF9A
:1001700020F00705083501F0B1FC114B1A6822B9CF
:1001800003F10C0222F007021A6041F2F7300D4928
:10019000D1F80C432A1982420CD8A2420AD91B6812
:1001A000C1F80C231C1906D0942021462A4603F0DE
:1001B000FBF900E0002401F02BFD204638BD00BF14
:1001C000940400208C1500207047024B0022C3F8D5
:1001D0000C2370478C150020034BD3F80C03C0F59B
:1001E0009F501830704700BF8C15002008B5234B76
:1001F000984205D10420012100F064FA042036E081
:100200001F4B984205D10820012100F05BFA08201D
:100210002DE01C4B984205D11020012100F052FA2C
:10022000102024E0184B984205D12020012100F035
:1002300049FA20201BE0154B984205D140200121AE
:1002400000F040FA402012E0114B984205D1802086
:10025000012100F037FA802009E00E4B98420BD1C3
:100260004FF48070012100F02DFA4FF480700021CE
:10027000BDE8084000F026BA08BD00BF00080140F4
:10028000000C014000100140001401400018014022
:10029000001C01400020014008B50120014600F08B
:1002A00011FABDE808400120002100F00BBACA781D
:1002B000F0B5D40648BF8C780D8802F00F0348BF14
:1002C000234315F0FF0F1DD0016800240126A6402E
:1002D00006EA0507B74211D14FEA840E0F2606FA47
:1002E0000EF621EA0601282A03FA0EF641EA060173
:1002F00001D1476102E0482A08BF07610134082C98
:10030000E4D10160FF2D1FD94168002404F10807E2
:100310000126BE4006EA0507B74211D14FEA840E16
:100320000F2606FA0EF621EA0601282A03FA0EF62F
:1003300041EA060101D1476102E0482A08BF07618E
:100340000134082CE2D14160F0BD4FF6FF73038009
:10035000022383700423C37070478368194214BF5B
:10036000012000207047806880B27047C36819423E
:1003700014BF012000207047C06880B2704701613F
:100380007047416170470AB1016170474161704730
:10039000C160704741F48033836181618361836907
:1003A00083697047054A136823F07F031B041B0C05
:1003B000194341EA00101060704700BF000001407F
:1003C000014B1860704700BF1C002042002830B568
:1003D000154C00F44015B4BFE3696368B5F5401FE0
:1003E00082B206D1656823F0706325F070656560A0
:1003F0000EE0C40255BF440D03242401C0F303459D
:100400004CBFAC4002FA04F423EA040343F07063E7
:1004100019B1410D09018A401343034A0028B4BFB2
:10042000D361536030BD00BF0000014001F0030301
:1004300001F0FC0101F1804101F5803110B59B0014
:100440008C680F229A4024EA02028A608A689840E7
:1004500002438A6010BD014B18607047DC002042E7
:100460000D4B1A6842F001021A6059680B4A0A40A3
:100470005A601A6822F0847222F480321A601A6874
:1004800022F480221A605A6822F4FE025A604FF465
:100490001F029A60704700BF001002400000FFF882
:1004A0000C4BB0F5803F1A6822F480321A601A684B
:1004B00022F480221A6003D0B0F5802F04D0704758
:1004C0001A6842F4803202E01A6842F4A0221A60EC
:1004D000704700BF00100240034A136823F0F8037E
:1004E00043EAC0001060704700100240014B1860E2
:1004F000704700BF00004242034A536823F47C1354
:10050000194308435060704700100240014B1860C7
:10051000704700BF60004242034A536823F0030360
:1005200018435060704700BF00100240024B5868EB
:1005300000F00C00704700BF00100240034A5368EF
:1005400023F0F00318435060704700BF00100240D2
:10055000034A536823F4E06318435060704700BFB8
:1005600000100240034A536823F4605343EAC0007A
:100570005060704700100240044B1A7809B11043D4
:1005800001E022EA00001870704700BF0910024025
:10059000014B1860704700BFD8004242034A5368BD
:1005A00023F4404318435060704700BF00100240DE
:1005B000064B002201281A701A7002D0042802D0BB
:1005C00070471870704705221A707047201002405B
:1005D000014B1860704700BF80044242024A136A10
:1005E00018431062704700BF00100240014B1860B2
:1005F000704700BF3C0442421C4A10B5536803F0E8
:100600000C03042B01D0082B01D0194B0EE05368CA
:100610005168C3F38343CC0303F1020302D551684D
:10062000890301D5134900E011494B430360536826
:100630001149C3F30313CC5C0368E340436054687F
:10064000C4F302240C5D23FA04F484605468C4F3F8
:10065000C2240C5DE340C3605268C2F381320A4495
:10066000127CB3FBF2F3036110BD00BF0010024027
:1006700000127A0000093D0000000020044B5A6976
:1006800009B1104301E022EA00005861704700BF41
:1006900000100240044B9A6909B1104301E022EABC
:1006A00000009861704700BF00100240044BDA69F7
:1006B00009B1104301E022EA0000D861704700BF91
:1006C00000100240044BDA6809B1104301E022EA4D
:1006D0000000D860704700BF00100240044B1A6948
:1006E00009B1104301E022EA00001861704700BF21
:1006F00000100240014B1860704700BF40044242A6
:10070000014B1860704700BF4C004242014B18700B
:10071000704700BF071002404209012A074B01D170
:100720001B6803E0022A0CBF1B6A5B6A00F01F0013
:1007300023FA00F000F00100704700BF00100240F3
:1007400007B5002301933120FFF7E6FF019B01333A
:100750000193019BB3F5A06F01D00028F3D03120A5
:10076000FFF7DAFF003018BF012003B05DF804FB8B
:10077000024A536A43F0807353627047001002408C
:10078000034B9B68184214BF01200020704700BF34
:1007900000100240014B1870704700BF0A10024061
:1007A00038B51546026C044632B9056845BB406849
:1007B00001F098FD656024E06DB9806803F0CAFD22
:1007C000A268236C13446268A360934218D3236821
:1007D0002846A36015E0C06803F0BCFD236CE26806
:1007E0005B4221681A448A42E2603EBF62689B18FD
:1007F000E360022D04D1A36B13B1A36B013BA36390
:100800000020A36B0133A36338BD026C10B503460F
:1008100072B1C4681444C4604068844228BF186838
:10082000BDE8104028BFD8600846D96803F092BDE3
:1008300010BD10B5044603F0F9FBA36C002B0CDDD2
:10084000636A53B104F1240001F028FC08B101F0FF
:10085000B7FCA36C013BA364EFE74FF0FF33A36445
:1008600003F0F5FB03F0E2FB636C002B0CDD236966
:1008700053B104F1100001F011FC08B101F0A0FC2B
:10088000636C013B6364EFE74FF0FF336364BDE8E3
:10089000104003F0DCBB38B504460D4603F0C6FB40
:1008A000206CE36B22684343D1181B1A1344616028
:1008B000E36000214FF0FF33A163A2606364A3648F
:1008C00055B9236983B104F1100001F0E7FB012859
:1008D0000AD103F094FB07E004F1100001F054FF8B
:1008E00004F1240001F050FF03F0B1FB012038BDFA
:1008F000F8B5064617460D4611B14843013000E0F1
:1009000008465430FFF730FC044698B30DB9206018
:1009100002E000F1540303600121E66325642046F0
:10092000FFF7B9FF84F85070204603F0CAF8124E62
:10093000305C02F075F8E064204603F0C2F8355CE4
:10094000204603F0BEF8375C204603F0B5F81835B2
:10095000EDB202463946284603F060FA204603F01D
:10096000B0F8355C204603F0A7F80022014628467F
:1009700002F0A8FF2046F8BD3000002010B502228A
:100980000C460021FFF7B4FF00B1846310BD2DE9D0
:10099000F04304460F461E4685B001924FF0000812
:1009A00003F044FBA26BE36B9A4201D3022E43D1C6
:1009B000204603F086F8DFF8888118F800502046BA
:1009C00003F07FF818F80090204603F075F8203502
:1009D000EDB202464946284603F020FA204603F0CD
:1009E00070F818F80090204603F066F80546204697
:1009F00003F067F818F800302946022B17BFA26BE6
:100A000000220132D2B2484602F05CFF204639464D
:100A10003246FFF7C5FE636A43B104F1240001F0DA
:100A20003DFB012804D103F0EAFA01E00028FAD1E5
:100A300003F00DFB012080E0019D9DB903F007FB51
:100A4000204603F03EF83E4F3E5C204603F039F866
:100A50003F5C204603F030F84836F6B2024639468D
:100A6000304667E0B8F1000F02D102A801F07AFB2E
:100A700003F0EDFA01F032F803F0D8FA636C0133B9
:100A800004BF00236364A36C013304BF0023A36489
:100A900003F0DDFA02A801A901F06EFBA0BB03F090
:100AA000C5FAD4F83880E56B03F0D1FAA8452046A2
:100AB00025D103F006F8DFF8888018F800502046AA
:100AC00002F0FFFF18F80080204602F0F5FF7035B5
:100AD000EDB202464146284603F0A0F904F11000A9
:100AE000019901F087FA2046FFF7A3FE01F090F884
:100AF00010B14FF0010853E703F081FAF9E7FFF76F
:100B000098FE01F085F8F4E72046FFF792FE01F029
:100B10007FF8204602F0D5FF094E355C204602F0F2
:100B2000D0FF365C204602F0C7FF4835EDB20246E2
:100B30003146284603F072F9002005B0BDE8F08385
:100B4000300000202DE9F04107465420FFF70CFB50
:100B5000284E0446002842D001230025C3634FF0ED
:100B6000FF33856345604364056083648560C560C9
:100B7000056480F85070103001F006FE04F1240086
:100B800001F002FE204602F09CFF305C01F048FFBD
:100B9000E064204602F095FF375C204602F091FFAA
:100BA00016F80080204602F087FF1837FFB2024691
:100BB0004146384603F032F9204602F082FF365CA7
:100BC000204602F079FF2A460146304602F07AFEBE
:100BD000204629462A462B46FFF7D9FE06E07178C3
:100BE000224601F14000C0B203F018F92046BDE8EA
:100BF000F08100BF3000002070B54568044601F068
:100C0000EDFA854209D1E1680139E160D1B92046A8
:100C10000A460B46FFF7BBFE14E0204602F051FFE8
:100C2000094E355C204602F04CFF365C204602F04F
:100C300043FF4835EDB202463146284603F0EEF850
:100C4000002070BD012070BD300000202DE9F84F5C
:100C50000446904699468A4603F0DCF9A26BE36BA2
:100C600007469A4220462C4E02D3B9F1020F3AD1E0
:100C700002F027FF355C204602F023FF16F800B093
:100C8000204602F019FF3035EDB20246594628469B
:100C900003F0C4F8204602F014FF355C204602F051
:100CA0000BFFA26B014601322846D2B202F00AFEC7
:100CB000204651464A46FFF773FDA36C01330DD120
:100CC000636A73B104F1240001F0E8F948B1B8F1A6
:100CD000000F06D00124C8F8004016E0A36C0133D1
:100CE000A364012411E002F0ECFE355C204602F022
:100CF000E8FE365C204602F0DFFE5835EDB20246D3
:100D00003146284603F08AF80024384603F09CF95F
:100D10002046BDE8F88F00BF300000202DE9F843E1
:100D20000446884603F076F9A26BE36B07469A42C5
:100D30002046294E38D202F0C4FE355C204602F02F
:100D4000C0FE16F80090204602F0B6FE3035EDB237
:100D500002464946284603F061F8204602F0B1FEFB
:100D6000355C204602F0A8FEA26B014601322846FF
:100D7000D2B202F0A7FDA36B0133A363A36C0133CE
:100D80000DD1636A73B104F1240001F087F948B111
:100D9000B8F1000F06D00124C8F8004016E0A36C9B
:100DA0000133A364012411E002F08BFE355C204680
:100DB00002F087FE365C204602F07EFE5835EDB22A
:100DC00002463146284603F029F80024384603F04D
:100DD0003BF92046BDE8F883300000202DE9F043C0
:100DE000044688461F4685B00192002603F01EF98E
:100DF000A36B002B67D020464146D4F80C907B4D66
:100E0000FFF703FD2046002F3ED102F05AFE2E5C74
:100E1000204602F056FE2F5C204602F04DFE28369A
:100E2000F6B202463946304602F0F8FF204602F09C
:100E300048FE2F5C204602F03FFE0646204602F0A8
:100E400040FE2B5C022B05D102F058FE02F03BFE67
:100E5000024602E0A26B013AD2B23846314602F0B5
:100E600031FDA36B013BA363236813B901F0A2FA20
:100E7000606023691BB304F1100001F00FF9012831
:100E80001DD103F0BCF81AE002F01BFE2E5C2046D8
:100E900002F017FE2D5C204602F00EFE7836F6B208
:100EA00002462946304602F0B9FF636AC4F80C9046
:100EB0002BB104F1240001F0F1F80028E1D103F096
:100EC000C6F801208EE0019D9DB903F0C0F82046D0
:100ED00002F0F7FD454F3E5C204602F0F2FD3F5C1C
:100EE000204602F0E9FD5036F6B202463946304659
:100EF00075E016B902A801F035F903F0A8F800F082
:100F0000EDFD03F093F8636C013304BF00236364C9
:100F1000A36C013304BF0023A36403F098F802A874
:100F200001A901F029F9002843D103F07FF8A56B4E
:100F300003F08DF82046BDBB02F0C3FD2B4E355C9F
:100F4000204602F0BEFD16F80090204602F0B4FDE7
:100F50006835EDB202464946284602F05FFF20465A
:100F600002F0AFFD335C022B05D002F0C7FD02F0AA
:100F7000AAFD02F085FD236833B903F057F86068D5
:100F800001F042F903F063F804F12400019901F043
:100F900031F82046FFF74DFC00F03AFE08B101267B
:100FA00024E703F02CF8FAE7FFF743FC00F030FEEB
:100FB000F5E72046FFF73DFC00F02AFE204602F050
:100FC00080FD0A4E355C204602F07BFD365C2046F3
:100FD00002F072FD5035EDB202463146284602F06D
:100FE0001DFF002005B0BDE8F08300BF30000020E9
:100FF00070B5466804460D4601F0F0F8864204D10B
:10100000E36801200133E36070BD00210B462046F8
:101010002A46FFF7E3FE012802BFE3680133E360DD
:1010200070BD2DE9F04704468946164602F0F2FFEE
:10103000A56B0746DFF8B4802046002D3BD002F0B8
:1010400040FD18F80050204602F03BFD18F800A0C3
:10105000204602F031FD3835EDB2024651462846B1
:1010600002F0DCFE204602F02CFD18F8005020466D
:1010700002F022FDA26B0146013A2846D2B202F0EC
:1010800021FC20464946FFF7C0FBA36B013BA3634D
:10109000636C01330AD123695BB104F1100000F0E5
:1010A000FDFF30B12EB10124346018E0636C0133D0
:1010B0006364012413E002F004FD18F80060204688
:1010C00002F0FFFC18F80080204602F0F5FC6036C4
:1010D000F6B202464146304602F0A0FE2C463846A3
:1010E00002F0B2FF2046BDE8F08700BF30000020CC
:1010F000F8B505460F4602F08DFFAC6B064634B1DD
:10110000EC6828463946FFF780FBEC600124304646
:1011100002F09AFF2046F8BD10B5044602F086FFA3
:10112000A46B02F094FF204610BD38B5054602F0CE
:101130007DFFAC6BEB6B1C1B02F089FF204638BDBA
:10114000806B70472DE9F0410446EFF310860123D0
:1011500083F3108802F0B5FC1C4D2F5C204602F092
:10116000B0FC15F80080204602F0A6FC87F080074E
:1011700002464146384602F051FE204602F09CFCF1
:101180000746204602F09DFC295C384602F0BAFA78
:10119000204602F091FC0746204602F092FC295CB2
:1011A000384602F0DFFA204602F08BFC2D5C204628
:1011B00002F082FC0146284601F008FC86F3108804
:1011C0002046BDE8F041FEF7FFBF00BF3000002021
:1011D000C06C7047C164704790F850007047806BD6
:1011E000B0FA80F040097047826BC06B131A584206
:1011F0005841704740F0BF60024B40F40030D86067
:10120000704700BF00ED00E0C27810B503780AB364
:10121000164A03F16043D4684278E443C4F30224DD
:10122000C4F1040102FA01F10F22E240847803F5CF
:10123000614322400A431201D2B283F800230378AB
:101240000122590903F01F0302FA03F3084A42F886
:10125000213010BD5A09012103F01F03994002F10A
:101260002003034A42F8231010BD00BF00ED00E048
:1012700000E100E021F0604121F07F01014B0843D3
:101280009860704700ED00E0044B1A6909B1104303
:1012900001E022EA00001861704700BF00ED00E0A5
:1012A000044B04281A680CBF42F0040222F0040226
:1012B0001A60704710E000E0002103E00A4B5B5821
:1012C0004350043109480A4B42189A42F6D3094A5E
:1012D00002E0002342F8043B074B9A42F9D300F0A6
:1012E0000FF802F03FFF70479C59000800000020F3
:1012F000780400207804002088270020FEE7000002
:10130000384B82B01A6842F001021A605968364AB6
:101310000A405A601A6822F0847222F480321A60FD
:101320001A6822F480221A605A6822F4FE025A6077
:101330004FF41F029A600022009201921A6842F450
:1013400080321A601A6802F400320192009A013267
:101350000092019A1AB9009AB2F5A06FF2D11A68F8
:1013600012F4003218BF01220192019A012A05D01D
:101370001E4B4FF000629A6002B070471C4A116821
:1013800041F010011160116821F003011160116832
:1013900041F0020111605A685A605A685A605A68EE
:1013A00042F480625A605A6822F47C125A605A6889
:1013B00042F4E8125A601A6842F080721A601968A2
:1013C000084A8901FBD5516821F003015160516839
:1013D00041F0020151605A6802F00C02082AFAD169
:1013E000C6E700BF001002400000FFF800ED00E07B
:1013F00000200240114A124B516801F00C010429EF
:1014000001D0082901D00F490EE051685068C1F39E
:101410008341C00301F1020102D55068800301D568
:10142000094800E00748414319605268C2F30312BB
:101430001A4411791A68CA401A60704700100240B5
:101440001400002000127A0000093D004369064A9A
:10145000934207D1806A1433984203D0B0FA80F0E7
:1014600040097047002070479C1800202DE9F0418A
:101470000C68002C46D04B6801F108075C68BC4240
:1014800008BF7B684C6008BF4B604B68D3F80CC04A
:1014900000F11C0300204C686468BC424C6004BF2F
:1014A000CC684C604C68032AE46804F1340543F8C6
:1014B000185C656C43F81C4C43F8145CE56A03F84F
:1014C000102C43F80C5C04D1A56A15B1022503F871
:1014D000105CE56CD4F830E043F8085C76460025F3
:1014E00043F8045CCEEB060516F8018BB8F1A50FA6
:1014F000F8D0AD08644523F8205B00F10100CAD1A3
:10150000BDE8F0812046BDE8F081064B9A6A12687A
:1015100012B94FF0FF3203E09A6AD268D26852687B
:10152000DA6270479C18002038B50C4C0546236BD6
:101530005860636B984206D2A06B216BBDE83840BF
:10154000043101F03BB9A06A216B043101F036F996
:10155000E36A9D4238BFE56238BD00BF9C18002099
:101560002DE9F84F99460C9B82460E4615460A9F78
:101570003BB99000FEF7F8FD8346002800F0D280CA
:1015800000E09B465C20FEF7EFFD044688B1AD000D
:101590002A46C0F830B0A521584602F051FF236B0F
:1015A000043D1D4425F00705731E04F133020F3678
:1015B00005E05846FEF708FEB4E0B34206D013F843
:1015C000011F02F8011F19780029F6D1BB46042F2C
:1015D00028BF4FF0040B4FF00008261D304684F85A
:1015E0004380C4F82CB0C4F84CB0C4F8508001F06B
:1015F000D6F804F1180001F0D2F8CBF10503A3618D
:10160000C4F854802461646284F8588028465146A6
:101610004A4602F0D4FC0B9B206003B11C60464D8F
:1016200002F004FDEB6B05F1400A0133EB632B6B19
:101630004BBB2C63EA6B012A2DD199460AEB0900BA
:1016400009F1140901F0A0F8B9F1640FDFF8E8809E
:10165000F4D108F1A40B584608F1B80901F094F848
:10166000484601F091F808F1140001F08DF808F1F6
:10167000CC0001F089F8404601F086F8C8F828B09F
:10168000C8F8389007E0D5F8E03023B92B6BDB6A57
:10169000BB4298BF2C63D5F8E43003200133636468
:1016A000C5F8E43001F0BCF9A064204602F00BFA62
:1016B00004F134020146032001F01CFA204602F036
:1016C00002FA94F82C200146032002F08BF8204601
:1016D00002F0F9F9032102461B2002F09FFB20468D
:1016E00002F0F1F901F0E6FEE26AD5F8E8300124F3
:1016F00004FA02F114200B4300FB02A03146C5F8A6
:10170000E83001F04FF802F0A2FCD5F8E03033B138
:10171000094B1B6BDB6ABB4201D202F070FC204616
:10172000BDE8F88F43200321002202F077FB4FF041
:10173000FF30BDE8F88F00BF9C180020F8B50446C4
:101740003B4D02F073FC04B92C6B261D304601F0B2
:101750004DF870B9E06A142303FB00531B6C344945
:101760003BB9D1F8E8200123834022EA0303C1F802
:10177000E830A36A1BB104F1180001F037F82C4FD0
:10178000314607F1CC0001F00DF8D5F8EC3001330B
:10179000C5F8EC30D5F8E4300133C5F8E430EFF3A8
:1017A0001086012383F31088204602F08CF9032170
:1017B0000246832002F032FB204602F084F9032126
:1017C00001F0A0FF204602F07EF9032101F0CAFFDC
:1017D000204602F078F994F82C200146032002F00C
:1017E00001F8204602F06FF900220146032002F0C2
:1017F00069F8204602F067F90146032001F0E6F897
:1018000086F3108802F023FCD5F8E03073B13B6B0F
:101810009C4203D1BDE8F84002F0F1BB02F006FCA7
:10182000FFF773FEBDE8F84002F011BCF8BD00BF41
:101830009C18002010B5044602F0F8FB0CB9034BCD
:101840001C6BE46A02F003FC204610BD9C180020CB
:1018500010B5044602F0DEFB0CB9034B1C6BE46AC6
:1018600002F0F2FB204610BD9C1800202DE9F04745
:101870000446042928BF04210D4602F0D7FB0CB909
:10188000374B1C6B204602F01EF90646204602F03C
:101890001AF90146032001F0EFFF03210346324607
:1018A0008D2002F019FB204602F00DF9EAB2014644
:1018B000032001F097FFE36CAB424DD09D42284FCF
:1018C00009D93A6B94420BD03A6BD66AB54234BF11
:1018D0000026012605E03E6BA21B5642564100E061
:1018E0000026D4F82C80DFF878904345A36908BF20
:1018F000E562002BE564A4BFC5F10505A5611423CD
:1019000009F1400503FB085362699A4221D104F1B1
:10191000040A504600F06AFF40B9D9F8E8200123D4
:1019200003FA08F322EA0303C9F8E830204602F07C
:10193000CAF801F0BFFDE16AD7F8E82001238B4027
:101940001420134300FB01505146C7F8E83000F063
:1019500029FF0EB102F053FBBDE8F04702F077BB60
:101960009C180020F8B50446B0B31C4D2B6B984270
:1019700032D002F05BFB2046FFF768FD01280646E7
:1019800026D1204602F09FF8271D024603218B2016
:1019900002F044FA384600F029FF204602F093F89E
:1019A00001F088FDE26AD5F8E83096401E43142025
:1019B00005F1400300FB02303946C5F8E86000F04D
:1019C000F1FE2B6BE26ADB6A9A4201D302F017FB4D
:1019D000BDE8F84002F03BBBF8BD00BF9C180020FA
:1019E0002DE9F843074602F015FB06463846FFF797
:1019F0002DFD0128814633D1384602F064F81C4C95
:101A0000024603218C2002F009FAD4F8F0300BBB17
:101A1000236BFA6ADB6A3D1D9A42284634BF4FF0B9
:101A200000084FF0010800F0E1FE384602F04BF8E4
:101A300001F040FDFA6AD4F8E83009FA02F00343F5
:101A4000C4F8E8301420403400FB0240294600F07E
:101A5000A9FE07E004F1140007F1180100F0A2FE4E
:101A60004FF00008304602F0EFFA4046BDE8F88338
:101A70009C18002030B5002485B000940194029495
:101A800003940C480C4978222346FFF769FD01288E
:101A900005460DD102F0BEFA084B4FF0FF32DA6274
:101AA000C3F8E0505C6305B0BDE8304002F01ABBFB
:101AB00005B030BDC51D0008F44600089C18002084
:101AC00008B502F0A7FA044B0022C3F8E020BDE8F5
:101AD000084002F093BA00BF9C180020034AD2F8D5
:101AE000F0300133C2F8F030704700BF9C1800207E
:101AF000014B586B704700BF9C180020014B586B7E
:101B0000704700BF9C180020014BD86B704700BF86
:101B10009C1800202DE9F0413A4CD4F8F030012B0C
:101B200002D0D4F8F43033B9374A002013680133B7
:101B3000136001F0BBF9D4F8F020D4F8F020314B59
:101B40005ABB5A6B01325A635F6B57B99A6A996BE9
:101B500099629A63D3F8F8200132C3F8F820FFF7AE
:101B6000D4FCE36A00259F420DD3A26A254B12687C
:101B700012B94FF0FF3205E09A6AD268D6687268EF
:101B8000974211D2DA62236B1422DB6A02FB034311
:101B90001B6C022B28BF01252CE0D3F8F420002574
:101BA0000132C3F8F42025E006F10408404600F0B5
:101BB0001DFEB36A1BB106F1180000F017FE304697
:101BC00001F081FF01F076FCF16AD4F8E8200123EE
:101BD0008B401343C4F8E8300C4B142000FB013059
:101BE000414600F0DFFD236BF26ADB6A9A4228BFB0
:101BF0000125BAE7D4F8FC30002B18BF0125284690
:101C0000BDE8F0819C1800203C1A0020DC18002060
:101C10002DE9F0412D4C02F009FAD4F8F030013BE7
:101C2000C4F8F030D4F8F0300BB1002449E0E36B95
:101C3000002BFAD06369254D43B32B6A0127DE6878
:101C400006F1040806F1180000F0D0FD404600F04F
:101C5000CDFD304601F037FF01F02CFCF26AD5F8DB
:101C6000E83007FA02F10B43C5F8E830142005F11B
:101C7000400300FB0230414600F094FD2B6BF26AFA
:101C8000DB6A9A4228BFC5F8FC70D3E7D5F8F43078
:101C900093B9D4F8FC40012CC7D102F0B0F910E0A0
:101CA000FFF738FF18B1094B0122C3F8FC20D4F824
:101CB000F430013BC4F8F430D4F8F430002BEFD109
:101CC000E7E702F0C4F92046BDE8F0819C18002047
:101CD00070B506460C46204DFFF700FF32686B6B6F
:101CE0001444934202D2944207D201E0944206D3B4
:101CF0009C4294BF0023012302E0002300E0012363
:101D000034600BB32146882001F0ACFC286B01F055
:101D1000DAFE01F0B5FE01F0F1FE01F0D4FE01F0B3
:101D2000AFFE286B0C4E043000F060FD48B9336BF9
:101D3000D6F8E820D96A01238B4022EA0303C6F8CB
:101D4000E8302046FFF7F0FBFFF762FF18B9BDE867
:101D5000704002F054B970BD9C18002038B505469B
:101D600018B9BDE8384002F04AB9154CFFF7B6FE85
:101D70002946892001F076FC206B01F0A4FE01F0D9
:101D80007FFE01F0BBFE01F09EFE01F079FE636B69
:101D9000206B1D44043000F029FD48B9236BD4F8B2
:101DA000E820D96A01238B4022EA0303C4F8E83013
:101DB0002846FFF7B9FBFFF72BFF0028D1D038BD2D
:101DC0009C18002008B5154CD4F8EC3003B3FFF78D
:101DD00085FED4F8CC50FFF71BFF002DF3D002F0A6
:101DE00025F9D4F8D830DD68281D00F0FFFCE36B3E
:101DF000013BE363D4F8EC30013BC4F8EC3002F073
:101E000026F9286BFEF7E0F92846FEF7DDF9DAE758
:101E1000236C012BD7D902F0F2F8D4E79C180020EC
:101E20002DE9F0410C4606461746FFF757FE1E4BBC
:101E3000DB6B9C4232D34FF0000844461A4D06EB50
:101E4000441005EB080190310122FFF70FFBA8F1C8
:101E5000140818F1640F0444F0D1A96A06EB441089
:101E60000222FFF703FB0444A96B06EB4410022295
:101E7000FFF7FCFA044406EB441005F1CC01042200
:101E8000FFF7F4FA044406EB441029460322FFF757
:101E9000EDFA04441FB100233B6000E00024FFF78B
:101EA000B7FE2046BDE8F0819C180020234B70B59A
:101EB000D3F8F0201C461AB10122C3F8FC2070BDF3
:101EC000C3F8FC201A6B1B6B12681B6B9A4204D878
:101ED000206B216B343102F043F9236B1849186BE6
:101EE0001422164D02F004FA20B1286B296B34310C
:101EF00002F036F9D4F8E830B3FA83F3DBB21421F8
:101F0000C3F11F0301FB03F6A219506C0D4D40688D
:101F10003544A84201FB0343506408BF406802F106
:101F2000400208BF50605B6CDB68236301F0E6FD94
:101F300001F0C9FDBDE8704001F010BD9C18002003
:101F4000E0460008E4180020F8B50446284E02F0E8
:101F50006DF804B9346B204601F0B5FD032102464B
:101F60008A2001F05BFF204601F0ADFD271D01F046
:101F700087FD384600F03AFC70B9E06A142303FB91
:101F800000631B6C1A493BB9D1F8E8200123834058
:101F900022EA0303C1F8E830A36A1BB104F1180078
:101FA00000F024FC124D3946284600F0FBFB02F0FD
:101FB0004EF8336B9C42D5F8E0300ED11BB1BDE832
:101FC000F84002F01CB8EA6B2968914201D12B63FA
:101FD000F8BDBDE8F840FFF769BF3BB102F026F855
:101FE000FFF793FABDE8F84002F031B8F8BD00BF42
:101FF0009C18002038B5124C0D46216B183100F0AA
:10200000DDFB206B043000F0F1FB234648B9226B66
:10201000D4F8E810D06A0122824021EA0202C4F812
:10202000E8206A1C06D1196B05480431BDE8384028
:1020300000F0B8BB586B2844BDE83840FFF774BACD
:102040009C18002038B5144C41F00041236B154614
:102050009961216B183100F0A5FB206B043000F072
:10206000C5FB234648B9226B0121D26AD4F8E800A7
:10207000914020EA0101C4F8E8106A1C06D1196BEE
:1020800005480431BDE8384000F08CBB586B28444B
:10209000BDE83840FFF748BA9C180020C36870B507
:1020A000DD68184C05F11806304600F09FFBD4F8A7
:1020B000F030B3B92E1D304600F098FB284601F0F1
:1020C00002FD01F0F7F9E96AD4F8E82001238B401A
:1020D0001343C4F8E830142004F1400300FB01303E
:1020E00001E004F11400314600F05CFB236BEA6A66
:1020F000DB6A9A4283BF034B0120C3F8FC00002037
:1021000070BD00BF9C180020F8B5C66841F00041C2
:102110000160371D00F06AFB384600F067FB30466F
:1021200001F0D1FC0E4D01F0C5F9F26AD5F8E830A6
:10213000012404FA02F10B43C5F8E830142005F13C
:10214000400300FB0230394600F02CFB2B6BF26A97
:10215000DB6A9A4286BF2046C5F8FC400020F8BDE5
:102160009C180020034BD3F8F8205B6B026043609F
:10217000704700BF9C18002038B50D46044601F09A
:1021800055FF2B680D4A591C506B10D0D2F8F8102F
:1021900022689142626801D090420AD2811A994223
:1021A00007D2121A13442B602046FFF7DBFF0024EE
:1021B00000E0012401F04BFF204638BD9C180020B0
:1021C000024B0122C3F8FC20704700BF9C1800207E
:1021D00000B1806C704700B181647047014B186B8F
:1021E000704700BF9C180020064BD3F8E02032B1A6
:1021F000D3F8F030002B0CBF0220002070470120E4
:10220000704700BF9C1800202DE9F84304460028C1
:1022100064D0334DC36A2A6BD26A93425ED282691C
:102220002F4E002AA8BF2A6B06F14007A8BFD26A2A
:102230004FF0140808FB0373A4BFC2F105028261CA
:1022400042699A4246D100F10409484600F0CEFAAC
:1022500068B9E16A08FB0168D8F840303BB9D6F8A4
:10226000E82001238B4022EA0303C6F8E8302B6BF9
:102270002046DB6AE36201F026FC01F01BF9E16A0B
:10228000D5F8E82001238B401420134300FB017094
:102290004946C5F8E83000F085FA204601F013FC05
:1022A0000646204601F00FFC0146032001F0E4FA47
:1022B0003246034603218E2001F00EFE204601F037
:1022C00002FC2B6B014693F82C200320BDE8F84359
:1022D00001F088BA336BDB6AC362DEE7BDE8F883DE
:1022E0009C180020F8B5044608B90020F8BD036D1D
:1022F000C16AC26C013B91420365F6D0002BF4D158
:10230000061D304600F072FA224D68B9E16A1423C6
:1023100003FB01531B6C3BB9D5F8E82001238B402C
:1023200022EA0303C5F8E830204601F0CCFB07465B
:10233000204601F0C8FB0146032001F09DFA3A4611
:10234000034603218F2001F0C7FD204601F0BBFBAF
:1023500094F84C200146032001F044FAE36C204637
:10236000E362C3F10503A36101F0ADFB01F0A2F844
:10237000E26AD5F8E830012404FA02F10B43C5F80B
:10238000E830054B142000FB0230314600F00AFA19
:102390002046F8BD9C180020DC180020044B1A6B66
:1023A00090691A6B1B6BDB6AC3F10503936170477D
:1023B0009C180020044B1A6B1AB1196B0A6D01327C
:1023C0000A65186B704700BF9C180020F8B5314CA7
:1023D00006460D4601F02AFE236B5B6D73BB236B33
:1023E000012783F858704DB3206B043000F0FEF9DC
:1023F00040B9226BD4F8E830D26A974023EA070745
:10240000C4F8E8706B1C05D1216B2248043100F040
:10241000C9F903E0606B2844FFF786F8226B02B12C
:10242000926C03212B46D42001F056FD01F066FB8F
:1024300001F049FB01F024FB01F0E1FD01F007FE92
:1024400001F0F4FD226B134B92F85820022A1A6B0C
:1024500003D102B1926CD32002E002B1926CD5207C
:102460002B46032101F038FD226B0A4B556D45B117
:102470001EB11B6B00225A6503E01A6B536D013BC2
:102480005365236B002283F8582001F0E0FD2846B5
:10249000F8BD00BF9C1800202DE9F041394C1D46C5
:1024A00080460F46164601F0C1FD236B93F8583065
:1024B000022B35D0226B536D23EA08005065236B45
:1024C0004FF0010883F8588055B3206B043000F0BA
:1024D0008DF948B9226BD4F8E830D26A08FA02F8CC
:1024E00023EA0803C4F8E8306B1C05D1216B2548AA
:1024F000043100F057F903E0606B2844FFF714F84B
:10250000226B02B1926C03212B46D72001F0E4FC30
:1025100001F0F4FA01F0D7FA01F0B2FA01F06FFD20
:1025200001F095FD01F082FD226B164B92F85820C8
:10253000022A1A6B03D102B1926CD62002E002B1DA
:10254000926CD82003212B4601F0C6FC16B1236BF8
:102550005B6D3360236B93F85830012B1DBF094B23
:1025600001251A6B00251EBF536D23EA0707576527
:10257000236B002283F8582001F069FD2846BDE84E
:10258000F08100BF9C1800202DE9F0411D46044653
:102590000F46164601F04AFD0DB1636D2B6094F8AD
:1025A00058500223721EEDB284F85830032A0DD819
:1025B000DFE802F002050B09616D0F4305E0636D72
:1025C0000133636502E0022D02D06765012600E059
:1025D0000026D2200321A26C01F020FC012D20D185
:1025E00004F10408404600F001F9204601F06BFABE
:1025F0000E4F00F05FFFE26AD7F8E83095401D43C8
:10260000142007F1400300FB02304146C7F8E850B0
:1026100000F0C8F83B6BE26ADB6A9A4201D901F02C
:10262000EEFC01F014FD3046BDE8F0819C1800205E
:102630002DE9F047DDF8208004460F4615461E467A
:1026400001F0E8FC81460EB1636D336094F8586088
:1026500002236A1EF6B284F85830032A0DD8DFE848
:1026600002F002050B09616D0F4305E0636D013354
:10267000636502E0022E02D06765012700E00027B3
:10268000D9200321A26C01F0C9FB012E2CD1194DD8
:10269000D5F8F030BBB904F1040A504600F0A6F8B2
:1026A000204601F010FA00F005FFE26AD5F8E830A4
:1026B00096401E43142005F14003C5F8E86000FB76
:1026C0000230514603E005F1140004F1180100F056
:1026D00069F82B6BE26ADB6A9A4205D9B8F1000F00
:1026E00002D00123C8F80030484601F0ADFC38465E
:1026F000BDE8F0879C1800202DE9F84304460F46FA
:1027000001F088FC022394F8586084F85830636D17
:1027100080460133F6B26365DA200321A26C01F032
:102720007DFB012E29D1174DD5F8F030BBB904F14E
:102730000409484600F05AF8204601F0C4F900F0B8
:10274000B9FEE26AD5F8E83096401E43142005F140
:102750004003C5F8E86000FB0230494603E005F19C
:10276000140004F1180100F01DF82B6BE26ADB6A1B
:102770009A4202D90FB101233B604046BDE8F843BD
:1027800001F062BC9C18002000F1080343604FF088
:10279000FF32C3600361002382600360704700233F
:1027A0000361704743689A684B608A609A68516019
:1027B0009960036808610133036070470A6830B5A7
:1027C000531C01D1036907E000F108035C68256828
:1027D000954201D82346F9E75A684A6091608B60B8
:1027E0005960036808610133036030BD4168826845
:1027F00003698A60826851605968814208BF5A60E3
:10280000002202611868013818607047014B186097
:10281000704700BF9C19002070B5EFF310860123AC
:1028200083F310880D4D0024A8686B68826901331A
:10283000C4628462C46144610462C0F8B844214641
:10284000920000F214506B60EC6001F0F9FD6B68CF
:102850002C74013B6B6086F3108870BD9C190020BE
:10286000034B00219A681B68116303B11847704736
:102870009C190020014BD868704700BF9C190020AC
:10288000034A0023D3609268C2F8B834704700BF8F
:102890009C190020014B9868704700BF9C190020CC
:1028A00040F6F44070470C4B10B59C680B4900286B
:1028B00018BF01460A48002CF8D0DB6800222263CA
:1028C0004BB9054B04F598605022D96001F050FED9
:1028D0000123C4F8B83410BD9C1900201847000823
:1028E0003F47000810B5044650B90B48FFF7DBFF1F
:1028F000204610BD23290DD8002363544B1CD9B2A8
:102900008B07F7D1202905D88B08043144F8232000
:10291000C8B210BDFF2010BD7247000810B50446B4
:1029200050B90B48FFF7BFFF204610BD23290DD833
:10293000002363544B1CD9B2CB07F7D4222905D806
:102940004B08023124F81320C8B210BDFF2010BD7F
:102950009B47000808B5094B9B68186B60B1D869A4
:10296000B0F5FA7F04D30648FFF79DFF002008BDAD
:1029700003EB800000F2145008BD00BF9C1900203A
:10298000C4470008062910B501D90D4808E030B148
:102990000C4B9A68531893F86440844204D20A4856
:1029A000FFF781FF002010BD02EB410293F8744055
:1029B000B2F87C20431E04FB032080B210BD00BF90
:1029C000EB4700089C19002028480008062810B58D
:1029D00001D90F4810E031B10E4A9368034493F8CF
:1029E00064308B4201D20C4806E002EB4004638A5B
:1029F000208C834204DC0948BDE81040FFF753BF38
:102A0000013B9BB26382134483F84A1010BD00BFA0
:102A1000664800089C190020AA480008E9480008F8
:102A2000062870B5014601D92F481DE02F4B4500FF
:102A30005A19528A9C1894F84A00C3F8802038B971
:102A400003EB410696F82060501C801B84F84A0076
:102A500003EB4106F68D98189642244C90F84A00F4
:102A600006D2234B53F82100FFF71DFF002070BD55
:102A70000132254492B26A8204EB41052D8C521B2F
:102A800001F1140504EB4504A58AAA42C4BFD2B2E1
:102A9000A282062927D8DFE801F0040B0E112614C4
:102AA000170000F00701012203EBD0038A4014E075
:102AB00000F10B020AE000F1160207E000F121022A
:102AC00004E000F1310201E000F1340203EBE20323
:102AD000012102F0070201FA02F293F8841021EAC0
:102AE000020283F8842070BD164900089C1900205A
:102AF000FC46000870B5044616460AB9154802E0BF
:102B0000062804D91448BDE87040FFF7CCBE09B9C7
:102B10001248F8E7124DAB68034493F864308B42D7
:102B200003D2104B53F82000EDE708462146FFF78B
:102B300029FFEB68A5F88C0053B9AB6831461C44FB
:102B4000184494F86C208C30BDE8704001F010BD42
:102B500070BD00BF5949000889490008B5490008FF
:102B60009C190020FC460008F8B5064620B9BDE8CF
:102B7000F8401E48FFF797BE0025B54234D21C4BE3
:102B80009F68FB692B4498003A1892F8142502F1CB
:102B90006701C9B20E290CD86832D2B2B9691344A0
:102BA0008B421FD20132384400F2145000219200AF
:102BB00016E0012A16D1BA690133934200F5A264E6
:102BC00004D2381904300021082209E0002104222F
:102BD00007F2145001F034FC3819043000210422AB
:102BE00001F02EFC0135C8E7F8BD00BFE049000840
:102BF0009C190020074B9B681A6B52B15A6901322D
:102C00005A61DA690132B2F5FA7FDA6101D3FFF76E
:102C100027BE70479C19002038B505460C46FFF7C3
:102C200099FE50B10123037024EA0503C3F3072280
:102C30001B0C42704380FFF7DDFF05EA040038BD3E
:102C40002DE9F0479846214B16469D68074605EB4F
:102C50004101B1F8344428B91D48FFF724FE384635
:102C6000BDE8F08712B14FEA182914E01948FFF7C0
:102C70001AFE3046BDE8F08705EB040A9AF83224C4
:102C80005FFA88F39A4209D09AF831449AF83034BE
:102C900003EB042084B2002CEED113E09AF8333415
:102CA0004B45F1D1221D2A44324492F83034002B96
:102CB000EAD104F2344028443946324601F00EFC91
:102CC0000028E1D12046BDE8F08700BF9C19002014
:102CD000354A0008704A00082DE9F8431446814639
:102CE00008B921480DE00AB920480AE0DFF88480DD
:102CF000D8F80800D0F82C64351D1544032D05D9EB
:102D00001B48FFF7D0FD0020BDE8F88301F50671F0
:102D10004D004119B1F804E0871987F830E487F8CD
:102D200032344FEA1E2E1B0A06F2344687F833343B
:102D3000494687F831E4304401F01AFCD8F80830ED
:102D40000026D3F82C241D44A018C4F57F4419187C
:102D5000FB34053081F834640444AA80C3F82C04A1
:102D6000A0B2BDE8F88300BFA74A0008E24A000805
:102D7000194B00089C19002030B508B90C4807E031
:102D800009B90C4804E012B10023012404E00A4808
:102D9000BDE83040FFF787BD10F8015B15B12B444B
:102DA0000134F9E703F03F030B70147030BD00BF2E
:102DB000564B0008874B0008B74B0008F7B50023B7
:102DC0000F468DF806308DF80730054620B91648B5
:102DD000FFF769FD284624E00DF107010DF1060219
:102DE000FFF7CAFFEFF31086012383F310880F4C1F
:102DF000284663689DF80710013363609DF806203C
:102E00003B46FFF71DFF38B928469DF807109DF88F
:102E100006203B46FFF760FF6368013B636086F373
:102E2000108803B0F0BD00BFEA4B00089C190020D9
:102E300010B5044620B1BDE810400021FFF7BEBF29
:102E40000248FFF730FD204610BD00BF194C0008B6
:102E500008B50F4B1A6842F080721A601B680BB9F4
:102E60000C4805E00C4A136813F0007303D00B48BC
:102E7000FFF719FD05E00A490B60136843F00103F1
:102E80001360084B9B685A6A0AB9074A5A6208BD20
:102E9000FCED00E0464C0008001000E0664C000825
:102EA000041000E09C19002080A81201144A30B5DB
:102EB000D2F89030012B134604D100B3D2F89430ED
:102EC000036030BD0F4AD3F89C401168D3F89820B6
:102ED0000A44D3F8A010CD43E54201D5A14205D163
:102EE000D3F8A4108A422CBF2146611C18B1940863
:102EF0000460C3F89440C3F89C10C3F8A42030BD0C
:102F00009C190020041000E073B5FF284FF0000466
:102F10000546019408D04FF6FF73984204D0264826
:102F2000FFF7C1FC204644E001A8FFF7BFFF234B99
:102F3000019AD3F8A840C3F8A8209B68141B596ACB
:102F4000B9B18C4284BFB4FBF1F2DE6A986A85BFE6
:102F5000B61801FB1242021912189A629A6A88BFC7
:102F6000DE628A4206D3D86A511A0130D862996269
:102F700000E09A62AC421AD9FFF7ECFCB8B14FF608
:102F8000FF739D4205D1A9230370230C43800023C6
:102F900006E0FF2D06D1A8230370230A4380230EE9
:102FA000437002E00648FFF77EFCFFF723FE05EAC8
:102FB000040002B070BD00BF8D4C00089C190020B9
:102FC000CA4C0008F8B50746EFF31085012383F3D8
:102FD0001088124C636801336360A3681B6BB3B144
:102FE00094F8AC3013B194F9AD3083B1237C73B154
:102FF000FF20FFF789FFC6B2FFF7ACFC38B10FB96D
:10300000D02300E0D1230370C670FFF7F3FD63689F
:10301000013B636085F31088F8BD00BF9C19002058
:103020000020CFE70120CDE72DE9F0412B4D2C4BBF
:10303000D5F8B02007461B6862B19B1A294A11686F
:103040008B4238BF1360422B04D8D5F8B4300BB193
:10305000AF221A706B68214C0BB1234811E0EFF3DB
:103060001086012383F31088636801336360A368CB
:103070001A6B5AB3227C4AB393F86830BB4204D22D
:103080001A48BDE8F041FFF70EBC4FF6FF70FFF79E
:103090003BFFA36880461B6BC3B194F8AD305AB2B6
:1030A0000F2A10DC2244013382F8B87084F8AD3066
:1030B000FFF750FC50B104230370A0F80280477062
:1030C000FFF798FD02E00A48FFF7EDFB6B68013B54
:1030D0006B6086F31088BDE8F08100BF9C1900206A
:1030E000041000E028000020ED4C0008214D0008ED
:1030F0005D4D00082DE9F843264B9A681C46126B7B
:10310000002A44D01A7C002A41D05A680AB12248C9
:1031100003E093F9AD3023B92048BDE8F843FFF749
:10312000C2BBEFF31086012383F310886368013379
:103130006360F0B94FF6FF70FFF7E6FE94F9AD302B
:103140008146012BC3BF1B1993F8B8704FF00508D7
:10315000277CD8BF4FF00708FFF7FCFB054630B1CE
:1031600080F800804770A0F80290FFF743FDC4F894
:10317000B45094F8AD30013B84F8AD30084B1B6877
:10318000C4F8B0306368013B636086F31088BDE823
:10319000F88300BF9C190020794D0008AB4D000852
:1031A000041000E02DE9F04F81468FB00F4619B9A9
:1031B0009948FFF778FB2BE1EFF31088012383F3A5
:1031C0001088964E736801337360B3681B6B002BD5
:1031D00000F0198196F8AC3023B196F9AD30002B90
:1031E00000F01181337C002B00F00D814FF0000ABC
:1031F0001546D346AA238DF81430042417F80B3053
:10320000DBB1252B40F0C0800AF1010A5FFA8AFA8F
:10321000BAF10F0F03D98248BEE0232B0AD10BF17C
:10322000010B1FFA8BFB17F80B30A3F13002092AB0
:10323000F5D9F2E72E2BF2D01BB90334C4F387047F
:10324000ADE0682B73D012D8622B00F0848001D8D7
:10325000582B15E0642B15D0662B40F09580EA1DA5
:1032600022F0070202F10805D2E9000124E0732BE5
:1032700010D002D86C2B2FD086E0752B02D0782B83
:1032800040F082802B1D05A821462A680193FFF794
:1032900029FB5DE02B1D28680193FFF7C9FD21463E
:1032A000024605A852E0232C6DD80EAB2344002221
:1032B000013403F8242CE4B2A207F4D1202C62D804
:1032C00004F47F730EAA1344019300F0C1FF019B25
:1032D000043443F8240C28E00BF1010B1FFA8BFB9C
:1032E00017F80B30662B4FD1EA1D22F0070202F1CE
:1032F00008050CCACDE90223A30709D0232C42D824
:103300000EAB23440022013403F8242CE4B2F3E78B
:103310001C2C38D8029A05ABC4F3870103EB81005B
:1033200043F82120039B08344360E4B22CE00BF106
:10333000010B1FFA8BFB17F80B30642B01D0752B98
:1033400022D121462B1D2A88019305A8FFF7E6FA12
:103350000446019B14E00BF1010B1FFA8BFB17F8DD
:103360000B30642B01D0752B0ED1232C05F10403F7
:10337000296807D80EAA2244013402F8241CE4B2BA
:103380001D4601E01D46FF240BF1010BFF2C1FFA27
:103390008BFB7FF433AF2348FFF785FA00244946BF
:1033A0003846FFF70BFDADF81600FF20FFF7ACFD28
:1033B000B2688DF81500136B2BB3D369926923445F
:1033C000934201D9FFF74CFAB3681A6BDAB1D869A6
:1033D000A20003EB800005A900F2145000F0BAFF30
:1033E0000E4BA4F169009A68D36902EB830181F85E
:1033F000140551692344B3F5FA7F0C44D361546139
:1034000001D3FFF72DFA7368013B736088F31088CE
:103410000FB0BDE8F08F00BFEF4D00089C190020F1
:103420001D4E0008504E00080EB403B503AA52F812
:10343000041B0192FFF7B6FE02B05DF804EB03B087
:103440007047F8B5064620B9BDE8F8401448FFF7C4
:103450002ABAEFF31085012383F31088114C6368B7
:1034600001336360A3681B6BA3B194F8AC3013B154
:1034700094F9AD3073B1237C63B1FF20FFF744FDB5
:103480000746FFF767FA28B1982347700370468014
:10349000FFF7B0FB6368013B636085F31088F8BDFC
:1034A000894E00089C190020014B5860704700BFEE
:1034B00028000020F8B50546002839D01D4B5B6870
:1034C000002B35D00F2801D91B4803E01B4C636843
:1034D00023B11B48BDE8F840FFF7E5B9EFF31086CC
:1034E000012383F31088636801336360A3681B6B57
:1034F000CBB100F1210304EBE30292F8842003F046
:10350000070342FA03F3DB070DD44FF6FF70FFF712
:10351000FBFC0746FFF71EFA28B102230370478021
:103520004570FFF767FB6368013B636086F31088B3
:10353000F8BD00BF28000020C54E00089C190020DF
:10354000024F00080128F8B5054601D9134803E0E9
:10355000134C636823B11348BDE8F840FFF7A3B9E3
:10356000EFF31086012383F31088636801336360EF
:10357000A3681B6B63B14FF6FF70FFF7C5FC0746EE
:10358000FFF7E8F920B1543D05704780FFF732FBA3
:103590006368013B636086F31088F8BD374F00080D
:1035A0009C190020024F00082DE9F0472C4C804662
:1035B000A3680D46002B50D082EAE276A6EBE276B5
:1035C000EFF31089012383F3108861681944D4F85C
:1035D000C83061601344C4F8C830A3681B6BBBB328
:1035E00094F9AD3013B994F8AC308BBBFF20FFF7E2
:1035F0008BFCB6F5803F824605D331464FF6FF700F
:10360000FFF70AFB0646FFF7A5F9074600B30023BC
:1036100080F801A003704680FFF7ECFAB5F5803F13
:1036200005D329464FF6FF70FFF7F6FA0546FFF778
:1036300091F968B10023437008F1010303704580DC
:1036400087F80080FFF7D6FAA368D4F8C8201A6577
:103650006368013B636089F31088BDE8F08700BFB1
:103660009C190020FE282DE9F04106460D4601D99F
:10367000214803E0214C636823B12148BDE8F041B3
:10368000FFF711B9EFF31087012383F31088636804
:1036900001336360A3681B6B33B3237C23B394F8BB
:1036A000AC3013B194F9AD30F3B104EBD60393F819
:1036B000CC3006F007021341DB0715D4FF20FFF7DB
:1036C00023FCB5F5803F804605D329464FF6FF70B1
:1036D000FFF7A2FA0546FFF73DF928B180F801800F
:1036E00006704580FFF786FA6368013B636087F3E5
:1036F0001088BDE8F08100BF6D4F00089C190020C4
:10370000C04F0008062970B506460C4601D912487C
:1037100007E0124B9D686B1893F86430834204D223
:103720000F48BDE87040FFF7BEB82B6B93B1FFF7B1
:1037300029F928448C300021FFF740FB0546FFF7AC
:1037400009F938B10834047046704580BDE870400E
:10375000FFF750BA70BD00BFF54F00089C1900205C
:10376000445000080629F8B507460C4601D91A4806
:1037700007E01A4EB3685A1892F86420824204D2C5
:103780001748BDE8F840FFF78EB81B6B13B3FFF77F
:10379000E1F80546F0B1032C3846214609D1FFF780
:1037A000F1F8B36893F86F201844104490F88D3006
:1037B00009E0FFF7E7F8B3681A1992F86C2018448B
:1037C000104490F88C3010346B702C70BDE8F840C9
:1037D000FFF710BAF8BD00BF8E5000089C190020FA
:1037E000E3500008062870B50446164601D90D4876
:1037F00007E00D4DAB68034493F864308B4204D26C
:103800000A48BDE87040FFF74EB808462146FFF76A
:10381000B9F8AB681C4494F86C101844084480F85C
:103820008D6070BD335100089C1900207A5100084A
:1038300038B515460D4A044692680B4692F8682042
:10384000824201D20A4801E021B90A48BDE8384065
:10385000FFF729B821461A460420FFF74BF9214605
:103860002A46BDE838400420FFF7BCBF9C19002061
:10387000B8510008F7510008062838B5044601D9A8
:103880000D4807E00D4DAB68034493F864308B425C
:1038900004D20B48FFF707F8002038BD0846214640
:1038A000FFF770F8AB681C4494F86C20184410447F
:1038B00090F88D0038BD00BF2A5200089C190020E6
:1038C00083520008062870B50446164601D90D48F3
:1038D00007E00D4DAB68034493F864308B4204D28B
:1038E0000A48BDE87040FEF7DEBF08462146FFF7F4
:1038F00049F8AB681C4494F86C101844084480F8EC
:103900008C6070BDFF5200089C19002041530008D4
:10391000062838B5044601D90D4807E00D4DAB68BF
:10392000034493F864308B4204D20B48FEF7BBFF8C
:10393000002038BD08462146FFF724F8AB681C4438
:1039400094F86C201844104490F88C0038BD00BFE7
:103950007A5300089C190020BD5300080F282DE958
:10396000F843064604D9BDE8F8432548FEF79BBF57
:10397000244C00F1210204EBE20393F8843002F0BE
:103980000702134113F0010318BF012384F8AC3080
:10399000EFF31087012282F310886268DFF86480F9
:1039A00001326260227C824208BF0123A268126B4E
:1039B000FAB1F3B94FF6FF70FFF7A6FA88F8106076
:1039C0008146FEF7C7FF054698B198F8101003200E
:1039D000FFF79EFF01280CBF072306232B7003204F
:1039E000217C0122A5F802906E70FFF76BFFFFF7B4
:1039F00001F96368013B636087F31088BDE8F883D1
:103A0000F75300089C190020F8B5194CA56825B992
:103A10001848FEF748FF2846F8BDE6682EBBEFF3CE
:103A20001087012282F31088636813446360A368DF
:103A30001A63FEF7D3FBFEF7CBFBC5B26DB90320CB
:103A4000FEF7EEFF05460C4A03202946FFF752F821
:103A5000032029463246FFF7C5FE2846FFF77EFFC2
:103A60006368013B636087F31088A368186BF8BD37
:103A70009C1900203A54000885540008FFF7C4BF81
:103A800010B50B4CA36893F86730834204D2BDE8AD
:103A900010400848FEF707BF0321FEF773FFA26836
:103AA00092F86F3010440344002283F88C2010BD3C
:103AB0009C1900208F54000808B5FDF789FBC0B29F
:103AC00008BDFDF789BB08B5FEF782FBC0B208BD93
:103AD00008B5FEF789FB831E5842584108BD08B55A
:103AE000FEF782FBB0FA80F0400908BD08B5FEF78A
:103AF0007BFB10F1FF3018BF012008BDFEF76EBB45
:103B0000294B07229B680521DA650A2283F8642085
:103B100083F8652083F866200F2283F8672083F8F6
:103B20006C2083F86D2083F86E2083F86F2083F873
:103B3000702083F8712083F87220102283F874209B
:103B400083F8752083F8762083F879200022A3F883
:103B50007C20A022A3F87E204FF4A072A3F880203E
:103B60004FF4F072A3F8822040F2FD22A3F88420E3
:103B700040F25232A3F8862040F2723283F8681085
:103B8000022183F8691083F86A1011201321A3F829
:103B900088204FF4667283F8771083F8780083F8F2
:103BA0007A101A66704700BF9C190020124B002241
:103BB0001A845A820A225A849A8214229A84DA82B5
:103BC0001E22DA841A832D221A855A8332225A85BC
:103BD0009A8334229A85DA830922DA8513221A8697
:103BE0001D225A862C229A863122DA8633221A879F
:103BF00035225A87704700BF9C19002040F6F44CCC
:103C00002DE9F04F494B4A4D1B68D5F89820494C97
:103C10001344494A85B01360204662460021AC60D7
:103C2000CDF80CC000F00CFC0222A2700322E2705E
:103C300070222271F022227241F6A122DDF80CC01E
:103C40004FF4FA710123A281A16104224FF0F031F7
:103C50004FF0710B4FF0720A4FF073094FF0F108FB
:103C6000F227F326C4F810C06370A2736165029353
:103C700084F805B084F806A084F8079084F80980D9
:103C8000A772E6720192FFF73BFFAC68029B019AB4
:103C9000C4F82C344FF07E534FF0F131C4F8B434F3
:103CA0004FF0F233C4F82414C4F82824C4F8BC3408
:103CB0005022224904F5986000F05AFC4FF0F3338B
:103CC000C4F810350A2384F8E83C0B2384F8E93C57
:103CD0000C2384F8EA3C0D2384F8EB3C742384F82D
:103CE000EF3CF42384F8F33C84F8ECBC84F8EDACAE
:103CF00084F8EE9C84F8F08C84F8F17C84F8F26C03
:103D0000FFF754FFAB681A7842B95A1E0B3312F80A
:103D1000011F01319A421170F9D102E00848FEF703
:103D2000C2FD05B0BDE8F04FFFF792B8041000E007
:103D30009C190020901A002084270020D5540008E8
:103D4000E9540008FFF75ABF06289ABF024B53F800
:103D500020000248704700BFFC46000812550008CA
:103D60000628F8B501D929484BE0294FBE6806441A
:103D700096F8643001268B4204D22648FEF793FD64
:103D80003046F8BD06283BD8DFE800F01F0D1604CA
:103D90003A26320001F1210505F0070306FA03F087
:103DA00007EBE50120E001F10B0404F0070306FA3C
:103DB00003F007EBE40117E001F1160202F007033C
:103DC00006FA03F007EBE2010EE001F0070306FA42
:103DD00003F007EBD10107E001F1310303F0070223
:103DE00006FA02F007EBE30191F884301840F8BDC1
:103DF000343101F0070306FA03F007EBE101F3E7C2
:103E00000548FEF750FD0120F8BD00BF40550008F1
:103E10009C19002086550008C6550008FE282DE98B
:103E2000F041064601D9274810E0062901D9264865
:103E30000CE0264B98681C46084490F864008242C7
:103E400001D9234802E05B6823B12248BDE8F04174
:103E5000FEF729BD237C93B3EFF31087012383F38F
:103E60001088636801336360A3681B6B13B394F914
:103E7000AD3013B994F8AC30E3B9D5B20846294651
:103E8000FFF76EFFB0B904EBD60393F8CC3006F021
:103E900007021341DB070DD44FF6FF70FFF734F82C
:103EA0008046FEF757FD28B1A0F8028006704570E5
:103EB000FEF7A0FE6368013B636087F31088BDE8EE
:103EC000F08100BFFA5500082D5600089C1900200B
:103ED00070560008B4560008FE282DE9F84307463E
:103EE0001D4601D92A4810E0062901D929480CE0CD
:103EF000294B98681C46084490F86400824201D916
:103F0000264802E05B6823B12548BDE8F843FEF788
:103F1000CABCEFF31088012383F310886368013370
:103F20006360A3681B6B5BB3237C4BB394F8AC302A
:103F300013B194F9AD301BB3D6B208463146FFF742
:103F40000FFFE8B904EBD70393F8CC3007F0070272
:103F50001341DB0714D4FF20FEF7D6FFFF2D814667
:103F600004D92946FF20FEF757FE0546FEF7F2FC6E
:103F700030B180F80390077046708570FEF73AFE06
:103F80006368013B636088F31088BDE8F88300BF75
:103F9000E95600081E5700089C1900206A570008BF
:103FA000B75700085B480068006880F3088862B66D
:103FB00061B6BFF34F8FBFF36F8F00DF00BF4FF0CD
:103FC000807300E90A00034B40F8202C40F80C3CB9
:103FD0004038704725400008074B19680868B0E86A
:103FE000F00F80F30988BFF36F8F4FF0000080F36C
:103FF00011884EF00D0E7047CC1800207047044B0E
:104000004FF080521A60BFF34F8FBFF36F8F70472E
:1040100004ED00E0EFF311804FF0BF0181F3118850
:104020007047002008B5FFF7F5FFFEE708B5FFF77A
:10403000F1FF044A136801331360BFF34F8FBFF3DE
:104040006F8F08BD3800002080F311887047044B43
:1040500018680138186008B9FFF7F6BF704700BF4D
:1040600038000020EFF30980BFF36F8F0D4B1A6803
:1040700020E9F00F10602DE908404FF0BF0080F3F9
:104080001188FDF713FF4FF0000080F31188BDE8A1
:10409000084019680868B0E8F00F80F30988BFF39A
:1040A0006F8F7047CC18002008B5FFF7B3FFFDF7FE
:1040B00031FD18B1044B4FF080521A600020BDE86A
:1040C0000840FFF7C1BF00BF04ED00E0034A044B06
:1040D0001A60072243F8042C704700BF3F19010003
:1040E00014E000E008B5094B1A6842F47F021A6038
:1040F0001A6842F07F421A60FFF7E8FF044B002283
:104100001A60FFF74FFFFFF785FFFEE720ED00E0A5
:104110003800002008ED00E007B500230193019A64
:104120000D4B9A4202D8019B0133F7E70B484FF43D
:1041300000510022FCF727F900230193019A064B56
:104140009A4202D8019B0133F7E704484FF400512B
:104150000122FCF718F9E0E7FEFFFF000010014024
:10416000FEE7FEE77FB5FFF7EDFDFFF74DFCFCF73F
:1041700077F94FF48030FCF793F93120FCF7CCFA53
:104180000028FAD00020FCF7D9F90020FCF7EAF962
:104190004FF48060FCF7DCF94FF48040FCF7FEF947
:1041A000274B01244FF480301C604FF4E011FCF7E2
:1041B000A3F92046FCF7AAF93920FCF7ADFA00284C
:1041C000FAD00220FCF7A8F9FCF7B0F90828FBD1D7
:1041D0007D200121FCF75EFA00214FF00060FDF721
:1041E00049F84FF44070FDF705F80420FDF758F842
:1041F00001214FF48040FCF759FA05A8FCF7A5F817
:104200004FF40055102303240E4805A98DF81730EC
:10421000ADF814508DF81640FCF749F809482946C6
:104220000122FCF7B0F8002301930293039306499F
:10423000782200940548FDF793F9FDF71BFCFEE793
:1042400000200240001001408E590008194100086A
:104250004FEA4102B2F1E04324BFB3F5001CDCF1A8
:10426000FE5C0DD901F0004C4FEAC0024CEA5070E0
:10427000B2F1004F40EB830008BF20F0010070470F
:1042800011F0804F21D113F13872BCBF01F0004012
:10429000704741F480114FEA5252C2F11802C2F144
:1042A000200C10FA0CF320FA02F018BF40F00100C5
:1042B0004FEAC1234FEAD32303FA0CFC40EA0C0077
:1042C00023FA02F34FEA4303CCE77FEA625307D1B4
:1042D00050EA01331EBF4FF0FE4040F440007047EB
:1042E00001F0004040F0FE4040F40000704700BF85
:1042F000032A70B426D940EA01039B0711D0047841
:104300000D78AC4222D10244431C05E013F8014B66
:1043100011F8015FAC4219D19342F7D1002070BC73
:1043200070470C4603461E6825681846AE42214673
:1043300003F1040304F1040404D1043A032A1846E7
:104340002146F0D8002ADAD11046E8E7601B70BC9D
:10435000704700BF844641EA000313F0030349D1CC
:10436000403A23D30B6803604B6843608B688360DB
:10437000CB68C3600B6903614B6943618B698361DF
:10438000CB69C3610B6A03624B6A43628B6A8362C7
:10439000CB6AC3620B6B03634B6B43638B6B8363AF
:1043A000CB6BC36340304031403ADBD230320BD369
:1043B0000B6803604B6843608B688360CB68C360A5
:1043C00010301031103AF3D20C3205D351F8043BBF
:1043D00040F8043B043AF9D2043208D0D2071CBF9B
:1043E00011F8013B00F8013B01D30B8803806046C4
:1043F000704700BF082A13D38B07B1D010F0030316
:10440000AED0C3F10403D21ADB071CBF11F8013B85
:1044100000F8013BA4D331F8023B20F8023B9FE7B0
:10442000043AD9D3013A11F8013B00F8013BF9D223
:104430000B7803704B7843708B78837060467047BD
:1044400070B4840746D0541E002A41D0CDB2034632
:1044500002E0621EE4B3144603F8015B9A07F8D148
:10446000032C2ED9CDB245EA05250F2C45EA05458A
:1044700019D9264603F11002103E0F2E42F8105CA7
:1044800042F80C5C42F8085C42F8045C02F110024D
:10449000F2D8A4F1100222F00F0204F00F0410323F
:1044A000032C13440DD91E462246043A032A46F82B
:1044B000045BFAD8221F22F003020432134404F0F2
:1044C00003042CB1C9B21C4403F8011BA342FBD165
:1044D00070BC704714460346C2E700BF002A3CD0B8
:1044E00040EA010313F00303F0B425D1032A23D9D2
:1044F00004680D68AC421FD1043A30D0A4F10135F4
:1045000025EA040414F0803F2CD1071D0D1D0DE099
:1045100057F8043B0E68A3F10134B34224EA0304C4
:104520000AD1043A1BD014F0803F1ED1032A294639
:10453000384605F10405EBD803780C78013AA3421C
:1045400008D162B173B110F8013F11F8014F013A7F
:10455000A342F6D0181BF0BC7047104670471046B7
:10456000F0BC70471846F0BC70470020F3E700BF6E
:1045700040EA01039B0770B42BD1032A29D90C46CA
:104580000346214654F8046BA6F1013525EA0605D9
:1045900015F0803F05D1043A032A43F8046B214605
:1045A000EFD8A2B10C78013A1C70013101333CB153
:1045B0006AB111F8014B013A03F8014B002CF7D115
:1045C0002AB11A44002103F8011B9342FBD170BCAD
:1045D00070470346E5E700BF024B13B1024800F005
:1045E00005B8704700000000F945000801460020AA
:1045F0000246034600F016B838B5084B084DED1AD0
:10460000AC1018BFED1805D0013C55F8043D984793
:10461000002CF9D1BDE8384000F05CB870040020EF
:10462000740400202DE9F047254C0646256888468D
:10463000D5F8484192469946C4B360681F2817DCF4
:10464000411C76B104EB8003C3F888A0D4F88851EC
:10465000012282401543022EC4F88851C3F8089104
:104660001ED0831C6160002044F82380BDE8F087E1
:10467000144B03B34FF4C870AFF300800446D0B1BD
:10468000D5F84831002784E888003846C5F8484105
:104690000121C4F88871C4F88C71002EE1D0D1E7F3
:1046A000D4F88C311A43C4F88C21DAE705F5A674E6
:1046B000C5F84841C1E74FF0FF30BDE8F08700BFC3
:1046C0009859000800000000F8B500BFF8BC08BC0D
:1046D0009E467047F8B500BFF8BC08BC9E467047C0
:1046E000A5A5A5A5A5A5A5A5A5A5A5A5A5A5A5A57A
:1046F000A5A5A5A549444C4500000000EC570008BD
:104700002658000868580008A2580008DA5800081F
:10471000105900084A59000854524143455F41531B
:10472000534552543A207654726163654572726FF4
:10473000723A206D7367203D3D204E554C4C00541D
:10474000524143455F4153534552543A2076547287
:104750006163654572726F723A205265636F72646D
:10476000657244617461507472203D3D204E554C19
:104770004C0054524143455F4153534552543A20F3
:104780007772697465496E7433323A206275666671
:104790006572203D3D204E554C4C005452414345DE
:1047A0005F4153534552543A207772697465496E9C
:1047B0007431363A20627566666572203D3D204E42
:1047C000554C4C00417474656D707420746F206991
:1047D0006E646578206F75747369646520657665AD
:1047E0006E742062756666657221005452414345BD
:1047F0005F4153534552543A207569496E64657858
:104800004F664F626A6563743A20496E76616C69DF
:10481000642076616C756520666F72206F626A65D0
:104820006374636C6173730054524143455F415339
:10483000534552543A207569496E6465784F664F06
:10484000626A6563743A20496E76616C69642076A9
:10485000616C756520666F72206F626A656374684B
:10486000616E646C650054524143455F415353454A
:1048700052543A20765472616365467265654F62A0
:104880006A65637448616E646C653A20496E76614E
:104890006C69642076616C756520666F72206F624A
:1048A0006A656374636C6173730054524143455F7E
:1048B0004153534552543A207654726163654672AF
:1048C00065654F626A65637448616E646C653A2021
:1048D000496E76616C69642076616C756520666FDF
:1048E000722068616E646C6500417474656D7074EB
:1048F00020746F2066726565206D6F726520686137
:104900006E646C6573207468616E20616C6C6F639B
:1049100061746564210054524143455F41535345DE
:1049200052543A207854726163654765744F626AE5
:1049300065637448616E646C653A20496E76616C9B
:1049400069642076616C756520666F72206F626A9B
:10495000656374636C6173730054524143455F41F6
:1049600053534552543A20765472616365536574CB
:104970004F626A6563744E616D653A206E616D6564
:10498000203D3D204E554C4C00496C6C6567616C78
:10499000206F626A65637420636C61737320696E53
:1049A000207654726163655365744F626A656374FF
:1049B0004E616D6500496C6C6567616C2068616E65
:1049C000646C652028302920696E207654726163FA
:1049D000655365744F626A6563744E616D652E0040
:1049E00054524143455F4153534552543A207072EB
:1049F00076436865636B44617461546F42654F76BA
:104A000065727772697474656E466F724D756C74F9
:104A100069456E7472794576656E74733A206E6F6F
:104A200066456E7472696573546F436865636B2085
:104A30003D3D20300054524143455F415353455260
:104A4000543A2070727654726163654C6F6F6B7567
:104A50007053796D626F6C5461626C65456E7472EF
:104A6000793A206E616D65203D3D204E554C4C00DD
:104A700054524143455F4153534552543A2070725A
:104A80007654726163654C6F6F6B757053796D62AC
:104A90006F6C5461626C65456E7472793A206C6516
:104AA0006E203D3D20300054524143455F415353F9
:104AB0004552543A20707276547261636543726550
:104AC00061746553796D626F6C5461626C65456E9B
:104AD0007472793A206E616D65203D3D204E554CD3
:104AE0004C0054524143455F4153534552543A2080
:104AF000707276547261636543726561746553794F
:104B00006D626F6C5461626C65456E7472793A20A7
:104B10006C656E203D3D20300053796D626F6C20D6
:104B20007461626C652066756C6C2E20496E6372D0
:104B3000656173652053594D424F4C5F5441424C5F
:104B4000455F53495A4520696E20747263436F6E06
:104B50006669672E680054524143455F415353458F
:104B600052543A207072765472616365476574439B
:104B70006865636B73756D3A20706E616D65203D7D
:104B80003D204E554C4C0054524143455F415353D8
:104B90004552543A20707276547261636547657469
:104BA000436865636B73756D3A2070637263203D73
:104BB0003D204E554C4C0054524143455F415353A8
:104BC0004552543A20707276547261636547657439
:104BD000436865636B73756D3A20706C656E6774BE
:104BE00068203D3D204E554C4C0054524143455F9A
:104BF0004153534552543A20707276547261636542
:104C00004F70656E53796D626F6C3A206E616D65A1
:104C1000203D3D204E554C4C0054524143455F4190
:104C200053534552543A207854726163654F70650E
:104C30006E4C6162656C3A206C6162656C203D3D32
:104C4000204E554C4C00445754206E6F74207375A1
:104C500070706F7274656420627920746869732063
:104C60006368697021004457545F435943434E546D
:104C7000206E6F7420737570706F7274656420623B
:104C80007920746869732063686970210054524107
:104C900043455F4153534552543A207072765472E3
:104CA0006163654765744454533A20496E76616C7C
:104CB00069642076616C756520666F722070617220
:104CC000616D5F6D6178445453004261642070618E
:104CD00072616D5F6D617844545320696E2070720B
:104CE00076547261636547657444545300496C6C33
:104CF0006567616C2063616C6C20746F2076547200
:104D000061636553746F7265495352426567696E9A
:104D10002C207265636F72646572206275737921ED
:104D20000054524143455F4153534552543A207613
:104D3000547261636553746F72654953524265677B
:104D4000696E3A20496E76616C69642076616C7593
:104D50006520666F722068616E646C6500546F6FC9
:104D6000206D616E79206E657374656420696E7460
:104D7000657272757074732100496C6C6567616C43
:104D80002063616C6C20746F20765472616365538C
:104D9000746F7265495352456E642C207265636F5F
:104DA0007264657220627573792100556E6D61744D
:104DB000636865642063616C6C20746F2076547244
:104DC00061636553746F7265495352456E64202860
:104DD0006E495352616374697665203D3D20302CE5
:104DE000206578706563746564203E203029005426
:104DF000524143455F4153534552543A20765472D1
:104E00006163655072696E74463A20666F726D61B7
:104E100074537472203D3D204E554C4C00765472B4
:104E20006163655072696E7446202D20546F6F2047
:104E30006D616E7920617267756D656E74732C207B
:104E40006D617820313520616C6C6F77656421006D
:104E50007654726163655072696E7446202D2054D9
:104E60006F6F206C6172676520617267756D656E2A
:104E700074732C206D617820333220627974652040
:104E8000616C6C6F776564210054524143455F410A
:104E900053534552543A2076547261636555736595
:104EA000724576656E743A20496E76616C6964204D
:104EB00076616C756520666F72206576656E744CE0
:104EC0006162656C0054524143455F415353455202
:104ED000543A2076547261636553746F72655461FD
:104EE000736B52656164793A20496E76616C6964CE
:104EF0002076616C756520666F722068616E646CE7
:104F000065005265636F7264657220627573792003
:104F10002D2068696768207072696F7269747920E2
:104F2000495352207573696E672073797363616C9E
:104F30006C3F202831290054524143455F4153536F
:104F40004552543A2076547261636553746F7265AA
:104F50004C6F77506F7765723A20496E76616C6955
:104F60006420666C61672076616C756500545241FF
:104F700043455F4153534552543A2076547261631E
:104F80006553746F72654B65726E656C43616C6CD2
:104F9000576974684E756D65726963506172616DB1
:104FA0004F6E6C793A20496E76616C696420766147
:104FB0006C756520666F7220657674636F6465003A
:104FC0005265636F726465722062757379202D205B
:104FD00068696768207072696F72697479204953D3
:104FE00052207573696E672073797363616C6C3FCF
:104FF000202834290054524143455F4153534552C0
:10500000543A2076547261636553746F72654F62CF
:105010006A6563744E616D654F6E436C6F73654571
:1050200076656E743A206F626A656374636C61734F
:1050300073203E3D2054524143455F4E434C415303
:105040005345530054524143455F415353455254D5
:105050003A2076547261636553746F72654F626A69
:105060006563744E616D654F6E436C6F7365457615
:10507000656E743A20496E76616C69642076616C65
:10508000756520666F722068616E646C65005452AD
:105090004143455F4153534552543A20765472611F
:1050A000636553746F72654F626A65637450726FA3
:1050B000706572746965734F6E436C6F7365457686
:1050C000656E743A206F626A656374636C617373B2
:1050D000203E3D2054524143455F4E434C41535383
:1050E00045530054524143455F4153534552543A4E
:1050F0002076547261636553746F72654F626A659E
:10510000637450726F706572746965734F6E436C2F
:105110006F73654576656E743A20496E76616C6989
:10512000642076616C756520666F722068616E64BC
:105130006C650054524143455F4153534552543AC4
:10514000207654726163655365745072696F726939
:10515000747950726F70657274793A206F626A6503
:105160006374636C617373203E3D20545241434528
:105170005F4E434C41535345530054524143455FA6
:105180004153534552543A207654726163655365D6
:10519000745072696F7269747950726F706572744D
:1051A000793A20496E76616C69642076616C756528
:1051B00020666F722069640054524143455F415339
:1051C000534552543A20765472616365536574496D
:1051D000535250726F706572746965733A20496EEC
:1051E00076616C69642076616C756520666F7220EB
:1051F00068616E646C650054524143455F4153538E
:105200004552543A2076547261636553657449532C
:105210005250726F706572746965733A206E616D79
:1052200065203D3D204E554C4C0054524143455F56
:105230004153534552543A2075695472616365472E
:1052400065745072696F7269747950726F706572AB
:1052500074793A20496E76616C6964206F626A6580
:105260006374636C617373206E756D626572202860
:105270003E3D2054524143455F4E434C41535345BC
:1052800053290054524143455F4153534552543AC8
:1052900020756954726163654765745072696F72F5
:1052A00069747950726F70657274793A20546173C1
:1052B0006B2068616E646C652065786365656473F6
:1052C000204E5461736B2E20596F75206D617920CB
:1052D0006E65656420746F20696E637265617365C5
:1052E000207468697320636F6E7374616E742069D3
:1052F0006E20747263436F6E6669672E682E005469
:10530000524143455F4153534552543A20765472BB
:105310006163655365744F626A6563745374617445
:10532000653A206F626A656374636C617373203ED3
:105330003D2054524143455F4E434C4153534553E6
:105340000054524143455F4153534552543A2076ED
:1053500054726163655365744F626A656374537414
:105360006174653A20496E76616C69642076616C7F
:10537000756520666F722069640054524143455F31
:105380004153534552543A207569547261636547DD
:1053900065744F626A65637453746174653A206F13
:1053A000626A656374636C617373203E3D2054527E
:1053B0004143455F4E434C41535345530054524182
:1053C00043455F4153534552543A207569547261C5
:1053D00063654765744F626A65637453746174658D
:1053E0003A20496E76616C69642076616C7565203F
:1053F000666F722069640054524143455F415353C4
:105400004552543A2076547261636553746F7265E5
:105410005461736B7377697463683A20496E76617F
:105420006C69642076616C756520666F72207461AA
:10543000736B5F68616E646C65005265636F726464
:10544000657244617461507472206973204E554CCA
:105450004C2E2043616C6C20765472616365496EFA
:1054600069745472616365446174612829206265BE
:10547000666F7265207374617274696E67207472EE
:105480006163652E0028737461727475702900540D
:10549000524143455F4153534552543A207654722A
:1054A0006163655365745461736B496E7374616EA7
:1054B000636546696E69736865643A20496E766112
:1054C0006C69642076616C756520666F7220686116
:1054D0006E646C65005472616365205265636F721F
:1054E0006465722044656D6F00547261636520735A
:1054F00074617274206D61726B65727320616C727D
:105500006561647920696E697469616C697A656442
:10551000210070737A5472616365476574457272D5
:105520006F7248616E646C65733A20496E76616C87
:105530006964206F626A656374636C6173732100D0
:1055400054524143455F4153534552543A2070727F
:1055500076547261636549734F626A656374457816
:10556000636C756465643A206F626A656374636C2A
:10557000617373203E3D2054524143455F4E434C7E
:1055800041535345530054524143455F41535345A2
:1055900052543A207569547261636549734F626A67
:1055A0006563744578636C756465643A20496E760A
:1055B000616C69642076616C756520666F72206825
:1055C000616E646C6500496E76616C6964206F621F
:1055D0006A65637420636C61737320494420696E4B
:1055E000207569547261636549734F626A656374BB
:1055F0004578636C75646564210054524143455F8E
:105600004153534552543A20765472616365537442
:105610006F72654B65726E656C43616C6C3A2065A8
:10562000636F6465203E3D20307846460054524109
:1056300043455F4153534552543A20765472616357
:105640006553746F72654B65726E656C43616C6C0B
:105650003A206F626A656374436C617373203E3DE8
:105660002054524143455F4E434C415353455300F0
:1056700054524143455F4153534552543A20765466
:105680007261636553746F72654B65726E656C43CE
:10569000616C6C3A20496E76616C69642076616C4D
:1056A000756520666F72206F626A6563744E756DF2
:1056B000626572005265636F726465722062757311
:1056C00079202D2068696768207072696F7269742B
:1056D0007920495352207573696E6720737973631B
:1056E000616C6C3F202832290054524143455F4190
:1056F00053534552543A2076547261636553746F24
:1057000072654B65726E656C43616C6C3A206576B0
:1057100074636F6465203E3D2030784646005452E5
:105720004143455F4153534552543A207654726188
:10573000636553746F72654B65726E656C43616C23
:105740006C57697468506172616D3A206F626A6566
:105750006374436C617373203E3D20545241434552
:105760005F4E434C41535345530054524143455FB0
:105770004153534552543A207654726163655374D1
:105780006F72654B65726E656C43616C6C576974C2
:1057900068506172616D3A20496E76616C6964206F
:1057A00076616C756520666F72206F626A656374DE
:1057B0004E756D626572005265636F72646572202A
:1057C00062757379202D2068696768207072696F2F
:1057D0007269747920495352207573696E6720731A
:1057E000797363616C6C3F20283329004E6F7420FD
:1057F000656E6F7567682051554555452068616E27
:10580000646C6573202D20696E6372656173652019
:105810004E517565756520696E20747263436F6EB5
:105820006669672E68004E6F7420656E6F756768D5
:105830002053454D4150484F52452068616E646C7D
:105840006573202D20696E637265617365204E5308
:10585000656D6170686F726520696E207472634354
:105860006F6E6669672E68004E6F7420656E6F7587
:105870006768204D555445582068616E646C6573A7
:10588000202D20696E637265617365204E4D7574BD
:10589000657820696E20747263436F6E6669672E47
:1058A00068004E6F7420656E6F75676820544153B1
:1058B0004B2068616E646C6573202D20696E637285
:1058C00065617365204E5461736B20696E2074723C
:1058D00063436F6E6669672E68004E6F7420656E55
:1058E0006F756768204953522068616E646C6573F8
:1058F000202D20696E637265617365204E49535295
:1059000020696E20747263436F6E6669672E68004B
:105910004E6F7420656E6F7567682054494D45520F
:105920002068616E646C6573202D20696E637265FA
:10593000617365204E54696D657220696E207472C2
:1059400063436F6E6669672E68004E6F7420656EE4
:105950006F756768204556454E5447524F55502045
:1059600068616E646C6573202D20696E6372656179
:105970007365204E4576656E7447726F7570206949
:105980006E20747263436F6E6669672E68004368A9
:0C59900065636B00430000004000002035
:10599C0000000000010203040102030406070809C9
:1059AC000204060800A24A040000000000000000E7
:1059BC000102030406070809009435770100000072
:1059CC000002010102000000AAAAAAAA000000001D
:1059DC00000000002C03002094030020FC03002096
:1059EC0000000000000000000000000000000000AB
:1059FC00000000000000000000000000000000009B
:105A0C000000000094590008000000000000000095
:105A1C00000000000000000000000000000000007A
:105A2C00000000000000000000000000000000006A
:105A3C00000000000000000000000000000000005A
:105A4C00000000000000000000000000000000004A
:105A5C00000000000000000000000000000000003A
:105A6C00000000000000000000000000000000002A
:105A7C000000000000000000010000000000000019
:105A8C000E33CDAB34126DE6ECDE05000B000000DE
:105A9C0000000000000000000000000000000000FA
:105AAC0000000000000000000000000000000000EA
:105ABC0000000000000000000000000000000000DA
:105ACC0000000000000000000000000000000000CA
